:020000040800F2
:1000000010BA00205D020008D3660008C14600084F
:10001000D166000851120008FD78000800000000B9
:100020000000000000000000000000009D0100082A
:10003000091C000800000000F901000821700008F8
:1000400077020008770200087702000877020008AC
:10005000770200087702000877020008770200089C
:10006000770200080B1C0008111C0008770200082A
:1000700001170008770200080D1700087702000832
:100080007702000877020008770200089D12000836
:10009000911200087702000877020008171C000878
:1000A000FD70000819710008770200087702000847
:1000B000697100087571000877020008770200086E
:1000C000770200087702000877020008C96D00086F
:1000D00077020008C176000877020008CD76000894
:1000E0007702000877020008770200088171000893
:1000F0008D71000877020008770200087702000877
:1001000077020008770200087702000877020008EB
:1001100077020008770200087702000877020008DB
:100120001917000825170008311700083D170008A7
:10013000770200087702000877020008F112000831
:10014000E51200087702000877020008770200082D
:100150007702000849170008551700086D78000855
:10016000770200087702000877020008770200088B
:1001700077020008770200087702000800000000FC
:100180007702000877020008DFF80CD000F03EFE8E
:10019000004800472584000810BA00202C4B19683D
:1001A0000868B0E8F04F80F30988BFF36F8F4FF015
:1001B000000080F3118870470000000008480068C4
:1001C000006880F308884FF0000080F3148862B65E
:1001D00061B6BFF34F8FBFF36F8F00DF00BF00BF6B
:1001E00008ED00E0DFF80C00016841F470010160E7
:1001F000704700BF88ED00E0EFF30980BFF36F8F19
:10020000134B1A681EF0100F08BF20ED108A20E96A
:10021000F04F106009B44FF0500080F31188BFF325
:100220004F8FBFF36F8F09F057F94FF0000080F345
:10023000118809BC19680868B0E8F04F1EF0100F6B
:1002400008BFB0EC108A80F30988BFF36F8F704746
:10025000F8010020EFF30580704700000648804752
:1002600006480047FEE7FEE7FEE7FEE7FEE7FEE79B
:10027000FEE7FEE7FEE7FEE7E170000889010008FF
:100280009FED1A1AF5EE000A40EE010ABDEEE00AF3
:10029000F5EEC00A10EE100AF1EE10FA38BF401E5B
:1002A00000EE100A1349F7EE001AB8EEC00A30EE5D
:1002B000C00ADFED0F0A20EE200AFCEEC00A10EEA5
:1002C000900AC0F3080000EE900A01EB8000F8EEFF
:1002D000600A90ED011A70EE600A90ED000A71EE6E
:1002E000E01A21EE800A00EE810A704783F9223E6F
:1002F0000000004468A30008B5EEC00AF1EE10FA51
:1003000007D2DFED1E0AB4EEE00AF1EE10FAA8BF44
:100310007047DFED1B0AB5EEC00A60EE200ABDEEA5
:10032000E01A11EE100AF1EE10FA38BF401E00EE8E
:10033000100A1549F7EE001AB8EEC00A30EEC00AEE
:10034000DFED100A60EE200ABCEEE00A10EE100AA3
:10035000C0F3080000EE100A01EB8000B8EE400A7E
:1003600090ED011A70EEC00A90ED000A71EEE01AED
:1003700021EE800A00EE810A70470000CD024CB4E5
:1003800083F9223E0000004468A3000870B4058889
:100390000E884468D1F804C05368B54208D140883B
:1003A0004988884201BF11888D425188884203D014
:1003B00070BC6FF00200704705FB00F1880827D081
:1003C00094ED001ADCED000A94ED010ADCED011A4F
:1003D00031EE201AD4ED020A70EE211A9CED020AC9
:1003E00083ED001AC3ED011A94ED031ADCED031A34
:1003F00030EE800A401E71EE210A83ED020A04F1FC
:100400001004C3ED030A03F110030CF1100CD7D153
:1004100011F0030030D0B0F1004F30D200282BDDB6
:10042000211F1B1FACF1040210F0010F0AD091ED47
:10043000010AD2ED010A091D121D30EE200A83EDDA
:10044000010A1B1D400817D091ED010AD2ED010AE7
:10045000401E30EE200A83ED010A91ED020AD2ED32
:10046000020A01F1080102F1080230EE200A83EDD0
:10047000020A03F10803E7D170BC00207047B4EC16
:10048000010A401EFCEC010A30EE200AA3EC010A2E
:10049000F5D1F1E701804280436070472DE9F34FC9
:1004A00084B0049840680090486801900498B0F8BF
:1004B00000E04588DFEDFE0A00200290B0EE600A01
:1004C000AE4506D108884988884204BF71468645F2
:1004D00004D06FF0020006B0BDE8F08F01985FEA2B
:1004E000010C18BFB7EE001A3DD000BFBEEB0C01E7
:1004F00017D0B1F1004F80F01F82002911DD021FDB
:1005000011F0010F1CBFC2ED010A121D4B1006D0E5
:10051000C2ED010AC2ED020A08325B1EF8D100EBFF
:100520008100BCF10102A0EC011A19D0B2F1004F18
:1005300080F00882002A13DD031F12F0010F1CBF98
:10054000C3ED010A1B1D511008D000BFC3ED010A05
:10055000C3ED020A491E03F10803F7D100EB820044
:10056000BCF1010CC2D14FF000080395002D14BF5F
:10057000B0EE602A002000F0BF8100BF009908FBA8
:1005800005F001EB800B0199DBED002A01EB800007
:100590000346F0EE421AC64552D9AEEB0802ABEB69
:1005A000850112F0010F17D001EB850191ED000AD2
:1005B000B5EEC00AF1EE10FA07DDB4EEE10AF1EE95
:1005C00010FA09DDF0EE401A06E0B1EE400AF4EE52
:1005D000C01AF1EE10FAF5D3521031D001EB850CB0
:1005E0009CED000AB5EEC00AF1EE10FA05DDB4EE9E
:1005F000E10AF1EE10FA09DD06E0B1EE400AF4EE90
:10060000C01AF1EE10FA01D2F0EE401A01EBC5016A
:1006100091ED000AB5EEC00AF1EE10FA05DDB4EE78
:10062000E10AF1EE10FA09DD06E0B1EE400AF4EE5F
:10063000C01AF1EE10FA01D2F0EE401A521ECDD1DE
:10064000F5EEC01AF1EE10FA00F07381F5EEC02A53
:100650000126F1EE10FA0099D4BFB1EE620AB0EEB5
:10066000620AB4EE610AF1EE10FA1CBFAEEB0802AA
:10067000B2F1010C47D005FB08F201EB820292EDCA
:10068000001A00BFB0EE410A05FB06F4B5EEC00A41
:1006900000EB8404F1EE10FACCBFF0EE400AF1EE6C
:1006A000400AF4EE610AF1EE10FA28D1B5EB080C1D
:1006B00011D0BCF1004F7DD2BCF1000F0BDD00BFAB
:1006C00092ED000AD1ED000ABCF1010CE2EC010A46
:1006D000A1EC010AF4D129000ED0B1F1004F6AD289
:1006E000002909DD94ED000AD0ED000A491EE4EC72
:1006F000010AA0EC010AF5D1012002900BE0761C62
:10070000BCF1010CBED10298012804D0F5EEC02A3C
:10071000F1EE10FA7ED09BED000AB5EB08009A4688
:100720005946064622D0B0F1004F74D200281DDD94
:10073000091F10F0010F06D0F0EE400A80EEA01A5B
:1007400081ED011A091D401010D000BFD1ED010A42
:10075000401E80EE801A81ED011A91ED021AC1EE61
:10076000000AC1ED020A01F10801EFD1280026D0EC
:10077000B0F1004F7ED2002821DDAAF1040110F073
:10078000010F06D0D1ED010A80EE801A81ED011A29
:10079000091D401013D000BFD1ED010A401E80EEAC
:1007A000801A81ED011AD1ED020A80EE801A81EDE6
:1007B000021A01E0CBE0D6E001F10801ECD1DDE95D
:1007C00000124FF000095FEA0E0773D0C14504BF65
:1007D00001EB860102EB850274D091ED000ADC4644
:1007E0005046331E35D01C46B6F1004F7ED2002C49
:1007F0002FDD0B1FABF1040C16F0010F0FD0F0EE44
:10080000400ADCED011AB0EE601A00EEE11A83ED49
:10081000011A01E08DE0B1E01B1D0CF1040C741015
:1008200015D000BFD3ED010A9CED011A40EE410A3C
:10083000C3ED010AD3ED020A9CED021A0CF1080C7B
:1008400040EE410AC3ED020A0833641EEAD101EB0F
:1008500086012B0036D0B3F1004F72D2002B31DD70
:10086000A2F1040CAAF1040013F0010F0CD0DCED8E
:10087000010A00E08BE090ED011A001D40EE410AF4
:10088000CCED010A0CF1040C5C1019D0DCED010A6E
:1008900090ED011A40EE410ACCED010ADCED020AAE
:1008A00090ED021A083040EE410ACCED020A03E056
:1008B000000000000DE005E0641E0CF1080CE5D11D
:1008C00002EB830201EB88017F1E09F101097FF42D
:1008D0007DAF009808F10108001D00900398401EAC
:1008E00003907FF44BAE0299012900E058E004BF69
:1008F00006B0BDE8F08F00BFB5EEC00AF1EE10FA09
:100900007FF4E9AD04990EFB05F3002B4A684FF024
:1009100000010BD902EB810C9CED000AB5EEC00A78
:10092000F1EE10FA02D1491C8B42F3D88B427FF4CE
:10093000D2AD6FF00400CEE5E0EC010A491EFBD118
:10094000EFE538E0E0EC010A521EFBD108E692ED3B
:10095000000AD1ED000ABCF1010CE2EC010AA1ECA5
:10096000010AF4D1B7E694ED000AD0ED000A491E61
:10097000E4EC010AA0EC010AF5D1BDE6D1ED000AD4
:10098000401E80EE801AA1EC011AF7D1EEE6D3EDFD
:10099000000A401E80EE801AA3EC011AF7D10EE780
:1009A000BCEC011AD1ED000A5B1E40EE410AE1ECFD
:1009B000010AF5D14DE7B0EC011AD2ED000A5B1E39
:1009C00040EE410AE2EC010AF5D17BE72DE9F04F58
:1009D00082B0466853680193058847884B88002099
:1009E00000900888874201BFB2F800C06545528870
:1009F00093421EBF6FF0020002B0BDE8F08F9FED82
:100A0000412A4FEA970EC7F3400B00BFDDE9000211
:100A100002EB800A4A6898464FF00009B0EE420A9D
:100A2000B4465FEA0E0025D092ED001ADCED001A04
:100A300002EB8302DCED010A01EE810A92ED001A5D
:100A400002EB8302401ED2ED001A02EB830200EE9D
:100A5000810A9CED021ADCED030A00040CF1100C73
:100A6000000C01EE210A92ED001A02EB830200EE67
:100A7000810AD9D117F0030026D0ACF10404A2EB0F
:100A8000830210F0010F08D002EB8302D4ED010ABB
:100A900092ED001A241D00EE810A5FEA0B0013D0CC
:100AA00002EB830CD4ED010A9CED001A02EBC302A9
:100AB000401E00EE810AD4ED020A92ED001A04F104
:100AC000080400EE810AEBD109F10100AAEC010A49
:100AD0001FFA80F9486800EB8902A8F101001FFAAB
:100AE00080F8B8F1000F99D1009806EB87061844FA
:100AF00080B20090681E05042D0C87D102B0002042
:100B0000BDE8F08F0000000070B405880E884468CE
:100B1000D1F804C05368B54208D14088498888425A
:100B200001BF11888D425188884203D070BC6FF09C
:100B30000200704705FB00F1880827D094ED001AE9
:100B4000DCED000A94ED010ADCED011A31EE601AC9
:100B5000D4ED020A70EE611A9CED020A83ED001AD0
:100B6000C3ED011A94ED031ADCED031A30EEC00A4E
:100B7000401E71EE610A83ED020A04F11004C3ED18
:100B8000030A03F110030CF1100CD7D111F003008C
:100B900030D0B0F1004F30D200282BDD211F1B1FB9
:100BA000ACF1040210F0010F0AD091ED010AD2ED70
:100BB000010A091D121D30EE600A83ED010A1B1D9A
:100BC000400817D091ED010AD2ED010A401E30EE27
:100BD000600A83ED010A91ED020AD2ED020A01F1E9
:100BE000080102F1080230EE600A83ED020A03F107
:100BF0000803E7D170BC00207047B4EC010A401E26
:100C0000FCEC010A30EE600AA3EC010AF5D1F1E731
:100C10002DE9F04F02884768B0F802804888D1F883
:100C2000049082B04FF0000A1646824207BF09883E
:100C300088456FF0020002B018BFBDE8F08F4FEAA0
:100C4000980B02EB42000190C8F34000CDF8000081
:100C500009EB8A01BBF1000F33D0019801EB820C44
:100C600001EB80043B46E64601EBC2054FEA0B0070
:100C700093ED000A401E81ED000A93ED010A01EB9D
:100C800002118CED000A93ED020A0CEB021C85EDBB
:100C9000000A93ED030A05EB021584ED000A04EB4C
:100CA000021403F11003E3D10EEB820000EB82008B
:100CB00000EB8201ABF10100504307EB0B1701EB96
:100CC000001118F0030C21D03B1FA1EB82011CF096
:100CD000010F06D093ED010A01EB82011B1D81ED8E
:100CE000000A009880B100BF93ED010A01EB820475
:100CF00001EBC20184ED000A93ED020A401E81ED72
:100D0000000A03F10803EFD107EB8C070AF1010099
:100D10001FFA80FA701E0604360C99D102B000202A
:100D2000BDE8F08F2DE9F05F0546002092469B4616
:100D300088460646814640241BE0284641464746F1
:100D4000224600F053F853465A46C01A914110D338
:100D500011461846224600F03AF82D1A67EB0108B2
:100D60004F4622460120002100F031F817EB000920
:100D70004E41201EA4F10104DFDC484631462A46DC
:100D80004346BDE8F09F40EA01039B0703D009E01A
:100D900008C9121F08C0042AFAD203E011F8013B67
:100DA00000F8013B521EF9D27047D2B201E000F8C0
:100DB000012B491EFBD270470022F6E710B51346FF
:100DC0000A4604461946FFF7F0FF204610BD202AC8
:100DD00004DB203A00FA02F1002070479140C2F192
:100DE000200320FA03F3194390407047202A04DBC4
:100DF000203A21FA02F00021704721FA02F3D04094
:100E0000C2F120029140084319467047064C074D35
:100E100006E0E06840F0010394E8070098471034CA
:100E2000AC42F6D3FFF7B4F98CAB0008ACAB0008CA
:100E300070B58C1810F8015B15F0070301D110F89C
:100E4000013B2A1106D110F8012B03E010F8016BC9
:100E500001F8016B5B1EF9D12B0705D40023521E4C
:100E60000DD401F8013BFAE710F8013BCB1A921CB4
:100E700003E013F8015B01F8015B521EF9D5A142B2
:100E8000D8D3002070BD000001221021014801F0DC
:100E90004DBE00000000024000221021014801F078
:100EA00045BE00000000024001221146014801F049
:100EB0003DBE00000004024000220121014801F073
:100EC00035BE00000004024070B50546FFF7E4FFA0
:100ED000922000F02DF906226549122000F00AF94F
:100EE000FFF7D2FF624CA4F11C0660782178000263
:100EF00000B2084300EE100AD6ED030AB8EEC00AAD
:100F000060EE200A95ED080A60EE800AC5ED000A41
:100F1000E078A178000200B2084300EE900A96ED56
:100F2000031AF8EEE00A60EE810A60EE800AC5ED71
:100F3000010A60792179000200B2084300EE900AAC
:100F40003081F8EEE00A60EE810A20EE800A85ED3D
:100F5000020AFFF7B1FF08222146002000F0CAF87C
:100F6000FFF7A2FF20780F285AD1F078A178002847
:100F7000E0784FEA002000B240EA01002BD000EEFA
:100F8000100AD5ED090AB8EEC01A96ED040A51EE22
:100F9000000AC5ED030A60792179000200B2084316
:100FA00000EE900A95ED0A1AF8EEE00A10EE801AAB
:100FB00085ED041AE079A179000200B2084300EE41
:100FC000900A308195ED0B1AF8EEE00A10EE801AC7
:100FD00085ED051A24E000EE100AF8EEC00A96ED41
:100FE000040A60EE800AC5ED030A607921790002E7
:100FF00000B2084300EE900AF8EEE00A60EE800AC4
:10100000C5ED040AE079A179000200B2084300EEC0
:10101000900A3081F8EEE00A20EE800A85ED050A9C
:10102000FFF73AFFA22000F083F8022210492220A5
:1010300000F060F8FFF728FF20786178C00040EAF0
:1010400051103081B0F5806F02DBA0F50060308177
:10105000B6F90800B4EE001A00EE100AF8EEC00A65
:10106000B3EE070A00EE810A85ED070A70BD0000A5
:101070007C01002070B50D461649174C0860002011
:10108000A07006F025FFA1780843A07006F0B4FF19
:10109000A1780843A0701DB1104800F02FF916E0A8
:1010A0000E489FED0F0A80ED090A9FED0E0A80EDB4
:1010B0000A0A80ED0B0A9FED0C0A80ED0C0A9FEDE9
:1010C0000B0A80ED080A9FED0A0A80ED060AA07857
:1010D00070BD00005C01002060010020940600202B
:1010E000AC38223BB016CE393F161B41C48B813F32
:1010F0000000204270B514460D4640F0800000F01C
:1011000017F806E0552000F013F8641E05F8010BEF
:10111000E4B2002CF6D170BD10B50C4640F0800052
:1011200000F006F8552000F003F8207010BD000014
:1011300001B582B04FF47A7000900548012301AAEE
:1011400002A9006802F0FCFA9DF804000EBD000040
:101150005C01002010B50C46FFF7EAFF2046BDE811
:101160001040FFF7E5BFB6EE000AD2ED020AF0EE3E
:10117000401A92ED031A40EEE01A90ED002AD2EDEB
:10118000012AD0ED013A22EEA03A41EE411A21EEB9
:10119000822AD2ED001A01EEC13A22EE811A01EE46
:1011A000A01A03EE232AD0ED020AF0EE001A01EE97
:1011B000202A62EE210AC1ED000A92ED011AD2ED59
:1011C000023A92ED002AD2ED030A61EE232A90ED55
:1011D000003A90ED014A42EE202A62EE832AB0EEF8
:1011E000403A01EE413A00EEE03A63EEA00A42EEE8
:1011F000410A43EE042A90ED021A40EE812A62EE83
:10120000A10AC1ED010A92ED011AD2ED032AD2ED35
:10121000020A92ED003A21EE222A60EEA22AD0EDD7
:10122000003A01EE410A03EE602A43EE012A90EDF6
:10123000013A00EEE00A22EE232AD0ED020A02EE85
:10124000832A00EE202A22EE210A81ED020A70474D
:10125000FEE7000000B58BB000200121CDE90601BA
:101260000590009001900290039004900E20CDE92B
:1012700008106946054800F0E9FD0221034800F026
:101280006FFD024801F072F90BB000BD0869002043
:10129000014800F0D6BE000008690020014800F0B7
:1012A000D0BE00000869002000B58BB001220E21DD
:1012B00000200792CDE9051003900490CDE90821A4
:1012C0000090019002906946054800F0BFFD0221A0
:1012D000034800F045FD024801F048F90BB000BD9D
:1012E00030690020014800F0ACBE000030690020E9
:1012F000014800F0A6BE0000306900202DE9F04F43
:1013000004462DED048B89B000200090019000F080
:10131000EBFBED4DDFF8B4B3DFF8B49385ED050AD0
:1013200002AE0DF114084FF07C5A00BF00F0DCFB58
:10133000D5ED050A30EE600A10EE100A584512DDB0
:101340009FEDE40A84ED090A9FEDE30A84ED0A0AA1
:1013500084ED0B0A9FEDE10A84ED0C0A9FEDE00A93
:1013600084ED060A8BE19FEDDF0A00F081FB9FED23
:10137000DE0A002784ED0C0A84ED090A84ED0A0ACE
:1013800084ED0B0AFBE000BFFFF786FD9220FFF71C
:10139000CFFE062269461220FFF7ACFEFFF774FD70
:1013A0009DF801009DF80010000200B2084300EE15
:1013B000100AD5ED030AB8EEC00A60EE201AC4ED9B
:1013C000001A9DF803009DF80210000200B20843C5
:1013D00000EE100A95ED031AB8EEC00A60EE010A9D
:1013E000C4ED010A9DF805009DF80410000200B24A
:1013F000084300EE100AB8EEC00A20EE011A21EEF2
:10140000A10A84ED021A00EEA00A01EE010A06F01C
:1014100015FDB0EE408A94ED0C0A30EE080A84ED1A
:101420000C0AFFF749FD082269460020FFF762FE1B
:10143000FFF73AFD9DF800000F2840D19DF803000A
:101440009DF80210000200B2084300EE100AD5ED2C
:10145000040AB8EEC00A20EE200A84ED030A94EDD7
:10146000091A31EE000A84ED090A9DF805009DF87D
:101470000410000200B2084300EE100AB8EEC00AE1
:1014800020EE200A84ED040A94ED0A1A31EE000AD7
:1014900084ED0A0A9DF807009DF80610000200B2CC
:1014A000084300EE100AB8EEC00A20EE200A84EDD0
:1014B000050AD4ED0B0A30EE800A84ED0B0A002FEA
:1014C0007ED0B4EEC98AF1EE10FA01DDB0EE489A92
:1014D000B4EEE88AF1EE10FA01D2F0EE488A00206C
:1014E0004FEA080204EB800191ED030A06EB80014C
:1014F000D1ED000AB4EEE00AF1EE10FA01DD81ED63
:10150000000A02EB8001D1ED000AB4EEE00AF1EE30
:1015100010FA01D281ED000A401CC0B20328E1D3C9
:1015200039EE680A0020424685ED060A4FEA0901B5
:1015300006EB8003D3ED000A02EB800393ED001A63
:1015400001EB8003401C70EEC10AC0B20328C3ED5A
:10155000000AEDD310EE100A504514DC63480A6807
:10156000824210DC4A6882420DDCD9F808108142C0
:1015700009DC9FED5F0A00F07BFA7F1CBFB2E888B0
:101580008742FFF401AFE988D4ED0C0A00EE101A8F
:101590002F460020B8EE400A80EE801A84ED0C1A27
:1015A00000EE101A04EB8002401CB8EE400AD2EDA7
:1015B000090AC0B2032880EE801A82ED091A00E001
:1015C0006AE0EDD3FFF768FCA220FFF7B1FD02222D
:1015D00069462220FFF78EFDFFF756FC9DF80000BC
:1015E0009DF80110C00040EA5110B0F5806F01DB9A
:1015F000A0F5006000EE100AB4EE001AF8EEC00A82
:10160000B3EE070A00EE810A84ED060AB888401C92
:10161000B880B86950453FF789AE94ED0C0ADFED0C
:10162000350A30EE600AB0EEC00A10EE100A5045DE
:10163000F1DC2E48D9F800104A468142EBDC5168B3
:101640008142E8DCD9F808108142E4DC94ED090A13
:101650002948B0EEC00A10EE101A8142DBDC94ED8E
:101660000A0AB0EEC00A10EE101A8142D3DC94EDE3
:101670000B0AB0EEC00A10EE101A8142CBDC94EDDA
:101680000C0ADFED1E0A80EE801A84ED081A09B0FC
:10169000BDEC048BBDE8F08FB0EE489AF0EE488ABE
:1016A0000020414604EB800292ED030A06EB800223
:1016B00082ED000A01EB8002401CC0B282ED000AFC
:1016C0000328EFD32CE70000600100200000204138
:1016D00088060020AC38223BB016CE393F161B419D
:1016E000000020420AD7A33B000000009A99193E4F
:1016F0006F12033ACDCC1C410AD7233CC3F51C41E1
:10170000014800F0C1BF0000A8740020014800F0AB
:10171000BBBF000008750020014800F0B5BF000005
:10172000AC700020014800F0AFBF000068750020D9
:10173000014800F0A9BF0000E8730020014800F054
:10174000A3BF00000C710020014800F09DBF000005
:10175000C8750020014800F097BF000048740020C1
:101760002DE9F04F85680024099E802D18D0894D01
:10177000C563894D456490F83450012D15D001257D
:1017800080F8345090F83550012D10D0002180F8A9
:1017900034100224002180F834102046BDE8F08F78
:1017A0004FF4807141650120F8E70220F6E7022539
:1017B00080F835500025456505682F6847F4802777
:1017C0002F6005682B6103685E608368402B0368A7
:1017D0002AD099600168CA60714D704E704FDFF871
:1017E000BC81DFF8B891DFF8B8A1DFF8B4B1EA1432
:1017F000DFF8A8E10168183630379302A9F14809EB
:101800000AF1600A0BF1180BAEF1300E4FF0006CCC
:1018100041452DD9A94205D0494503D0514501D0B4
:10182000B14205D1202220E09A600268D160D3E75E
:1018300059451AD0714518D0594D7835A94214D060
:10184000564D3035A94210D0B9420BD0534A183A00
:10185000914207D0524A9032914203D04F4A4832C7
:10186000914201D11A4600E062464C494C392EE0C3
:10187000DFF82C8108F1A80841452AD9A94205D0F2
:10188000494503D0514501D0B14201D120221CE08D
:1018900059451AD0714518D0414D7835A94214D018
:1018A0003E4D3035A94210D0B9420BD03B4A183AD0
:1018B000914207D03A4A9032914203D0374A483297
:1018C000914201D11A4600E06246344950390A601B
:1018D0005AE0DFF8CC8008F1480841452AD9A942EE
:1018E00005D0494503D0514501D0B14201D1202254
:1018F0001CE059451AD0714518D0294D7835A942B8
:1019000014D0264D3035A94210D0B9420BD0234A0D
:10191000183A914207D0224A9032914203D01F4A8E
:101920004832914201D11A4600E062461C49103902
:10193000CA6029E0A94205D0494503D0514501D0EC
:10194000B14201D120221CE059451AD0714518D06E
:10195000134D7835A94214D0104D3035A94210D01E
:10196000B9420BD00D4A183A914207D00C4A903236
:10197000914203D0094A4832914201D11A4600E00F
:101980006246074910398A6001680A6842F001021C
:101990000A60FFE61981000865810008586402406A
:1019A0001060024001681823CAB2103AB2FBF3F289
:1019B000054B6FF30901032A9B5CC36500D9091D20
:1019C0008165084670470000F49F000810B5014685
:1019D00000208B698A6A4FF0C07453B1B3F5005F81
:1019E00015D072B1012A0CD0022A0AD0032A09D1DB
:1019F00004E01AB1012A06D0022A03D1C96AC9013A
:101A000000D5012010BDC96AA142FAD010BD002A3C
:101A1000F7D0012AF2D0022AF3D0032AF3D010BD66
:101A200001680A68D20604D5C968C90601D507F05D
:101A30001DBB704701680A68D20604D5C968C9068B
:101A400001D507F013BB7047074808B54068009000
:101A5000014606480269914202D2C168491CC16030
:101A60000099016108BD0000001000E0480000205E
:101A70000A4948680A4AD2ED000A4A68121AF8EE82
:101A8000601A01EE102AB8EE411A60EE211AB4EE87
:101A9000E11AF1EE10FAF0D370470000001000E0F8
:101AA0004800002000B50E492DED028B81B0496839
:101AB00000910168009A511A00EE101A0949F8EED7
:101AC000400A91ED000A0260B8EE400A80EE808A7A
:101AD000FFF7BAFF01B0B0EE480ABDEC028B00BDC3
:101AE000001000E04800002010B500F043F80C485A
:101AF0009FED0C1A818890ED000A00EE901AC088C4
:101B0000B8EE400AF8EE600A00EE810A00EE900A94
:101B10009FED051AF8EE600A00EE810A10BD000084
:101B2000780000206F12833ABD3786350D490A6868
:101B300042F080720A600C4900224A600B6843F050
:101B400001030B6009494FF47A734843B0FBF3F388
:101B50000749C1E90003054BB0FBF3F0C1E90202FC
:101B600070470000FCED00E0001000E040420F0074
:101B7000480000202DE9F843214840680090FFF715
:101B800063FF204F0024009EF8684FF0FF31254688
:101B9000E0FB0165C7E90E65D7F8008023464246A1
:101BA00030462946FFF7BEF8A0FB083CC7E906010E
:101BB00001FB08C100FB0411F61A65EB0105C7E93A
:101BC000086507F130080023C8F80000D7F8049032
:101BD00030464A462946FFF7A5F880B2A8F8040027
:101BE00000FB09F0301A65EB0405C7E90A05294630
:101BF0000023BA68FFF796F8A8F80600BDE8F88356
:101C0000001000E0480000207047082000F08ABE65
:101C1000102000F087BE10B5202000F083FEBDE844
:101C200010404FF4007000F07DBEB6EE000AD2ED19
:101C3000020AF0EE401A92ED031A40EEE01A90ED1F
:101C4000002AD2ED012AD0ED013A22EEA03A41EE6F
:101C5000411A21EE822AD2ED001A01EE813A22EEDB
:101C6000811A01EEE01A03EE232AD0ED020AF0EE0B
:101C7000001A01EE202A62EE210AC1ED000A92ED5F
:101C8000011AD2ED023A92ED002AD2ED030A61EE7A
:101C9000232A90ED003A90ED014A42EE602A62EE6E
:101CA000832AB0EE403A01EE413A00EEE03A63EEAC
:101CB000A00A42EE010A43EE042A90ED021A40EE19
:101CC000812A62EEA10AC1ED010A92ED011AD2ED5C
:101CD000032AD2ED020A92ED003A21EE222A60EEAA
:101CE000A22AD0ED003A01EE410A03EE202A43EE8B
:101CF000412A90ED013A00EEE00A22EE232AD0EDCF
:101D0000020A02EE832A00EE202A22EE210A81ED49
:101D1000020A704772B6FEE710B558B1084C491E6A
:101D20000BD310F8013B5340DBB234F8133083EA95
:101D30001222F4E74FF6FF7010BD104610BD0000F0
:101D400068A1000810B5054C04E000BF10F8013B85
:101D50005340E25C491EF9D2104610BD68A000084D
:101D600090F82020012A07D0022A05D0416A41F4C8
:101D70008021416201207047006842690A43426144
:101D800000207047F0B590F820500468A468012D39
:101D900005D0022D03D0416A41F4802153E014F0B4
:101DA000406F01D1E5004BD5C4F30164022C03D987
:101DB000416A41F4000146E00125A5401D608D689F
:101DC0004FF4C0739DB1CE6835434E6845EAC605F1
:101DD000066803EB0417F5514FF4C275076805EB6D
:101DE00004150E697E51097D012905D009E00E8890
:101DF000CD6845EA4655EBE701684E5946F48076D2
:101E00004E511179D2F805504FF4C67641EA0525B6
:101E1000016806EB04168D511178D2F801204FF4B9
:101E2000C47541EA0221026805EB041551510068AE
:101E300003EB0411425842F0010242500020F0BD71
:101E4000416A41F4001141620120F0BD10B590F8E3
:101E50002020012A07D0022A05D0416A41F48021BE
:101E60004162012010BD3B48D0F8002242F001023F
:101E7000C0F80022D0F8002222F47C52C0F80022E0
:101E8000D0F800224B6A42EA0322C0F800220A7D01
:101E900002F01F0301229A40D0F81C329343C0F88D
:101EA0001C32CB69B3B9D0F80C329343C0F80C3272
:101EB0008C894B6864F31F434C6900EBC404C4F87D
:101EC00040320C890B6864F31F434C6900EBC40477
:101ED000C4F84432CB69012B16D1D0F80C3213432D
:101EE000C0F80C320C884B6864F31F434C6900EB5C
:101EF000C404C4F840320C89CB6864F31F434C69B6
:101F000000EBC404C4F844328B69002BD0F80432CF
:101F10000ED01343C0F804320B69002BD0F81432F2
:101F200008D01343C0F81432096A012904D008E02C
:101F30009343EFE79343F5E7D0F81C121143C0F841
:101F40001C12D0F8001221F00101C0F8001200208C
:101F500010BD000000640040704730B590F820408C
:101F6000012C05D0022C03D0416A41F480215DE0B0
:101F70000468002955D02469A40754D04FF4D874BC
:101F8000056804EB01142D5915F0040595600568EA
:101F90002D594ED0ED08556005682C5904F0020407
:101FA000D4604FF4DA74056804EB01142D5905F080
:101FB0000F05156105682D59C5F30725956105685D
:101FC0002C59240C54614FF4DC72046802EB0112AA
:101FD000A4581C700468A458240A5C700468A458AF
:101FE000240C9C700468A258120EDA704FF4DE7252
:101FF000046802EB0112A4581C710468A458240A56
:102000005C710468A458240C9C710468A258120ED8
:10201000DA71006881B1016941F02001016100209D
:1020200030BDE468A8E7416A41F400114162012033
:1020300030BD6D0D1560AFE7C16841F02001C16092
:10204000EDE72DE9F05F0546006800244669D0F809
:1020500004908768D0F80CB0D0F810A0D0F81880A1
:10206000F10748D0F90714D001218160B80703D5E2
:10207000284600F0A8FA0CE0780702D54FF4006477
:1020800007E0380702D54FF4805402E0284600F0FC
:1020900099FAF80516D529684FF480708860B8055C
:1020A00003D5284600F091FA0CE0780502D544F4F7
:1020B000005407E0380502D544F4804402E0284685
:1020C00000F082FAF80316D529684FF48030886052
:1020D000B80303D5284600F07AFA0CE0780302D55D
:1020E00044F4004407E0380302D544F4803402E0AD
:1020F000284600F06BFA300707D55FEACB6004D5BD
:102100002968102044F40074C86070074FF0080775
:1021100007D55FEA0B7004D52868C760284600F031
:10212000A9F9B00706D52868C068800702D02846FC
:1021300000F0A2F9700607D55FEACA6004D52968E5
:10214000102044F480640861B00607D55FEA0A7085
:1021500004D528680761284600F004FAF00606D581
:1021600028680069800702D0284600F0FCF9B00317
:1021700008D55FEAC96005D529681020486028465F
:1021800000F0F2F9F00307D55FEA097004D528687A
:102190004760284600F01CFA300446D55FEA4970D3
:1021A00040D5F00504D55FEAC87001D044F00104C1
:1021B000B00504D55FEA887001D544F002047005CB
:1021C00004D55FEA487001D544F00404300529D5F0
:1021D00018F0700F26D008F07000402815D006DCEB
:1021E000102809D020280AD0302816D10AE050281B
:1021F0000ED0602811D10EE044F008040DE044F048
:1022000010040AE044F0200407E044F0400404E035
:1022100044F0800401E044F480742868816921F06E
:1022200070018161296804204860002C05D0686A2B
:10223000204368622846FFF78FFEBDE8F09F70B527
:10224000040003D094F8200010B104E0012070BD18
:10225000204600F081F82068016841F0010101602A
:1022600000F06AFC0546052604E000F065FC401B12
:102270000A2811D820684068C007F6D02068016895
:1022800021F00201016000F057FC05460BE000F070
:1022900053FC401B0A2806D9606A40F40030606293
:1022A00084F82060D2E7206840688007EFD4207E61
:1022B0000128206801683DD021F080010160607E26
:1022C00001282068016838D021F040010160A07E1B
:1022D00001282068016833D021F020010160E07EF0
:1022E0000128206801682ED041F010010160207F94
:1022F00001282068016829D021F008010160607F71
:1023000001282068016824D021F004010160D4E98B
:1023100002010843D4E90412114308436168491ECD
:1023200008432168C86100206062012084F8200011
:10233000002070BD41F08001C0E741F04001C5E7D9
:1023400041F02001CAE721F01001CFE741F0080178
:10235000D4E741F00401D9E7F0B587B00446142171
:102360006846FEF729FD3E4B3E48DFF8F0E019686D
:10237000D4F800C03B4A0325022609271030002468
:10238000491CF4452AD11960012907D1016841F09F
:1023900000710160006800F000700590106840F066
:1023A000080010601068CDE9005600F00800CDE983
:1023B000047069462C48CDE9024500F0BFFA0022BE
:1023C0000521132000F064FD132000F053FD0022CE
:1023D0000521142000F05CFD14203AE0DFF88CE0C9
:1023E000F44538D1D0F800C04CF0806CC0F800C083
:1023F000D0F800C001290CF0806CCDF814C0196031
:1024000007D1016841F000710160006800F00070C0
:102410000590106840F002001060106802AB00F0F8
:10242000020005906020CDE9000683E8B00069460F
:102430000F4800F083FA002205213F2000F028FD1C
:102440003F2000F017FD00220521402000F020FD74
:10245000402000F00FFD07B0F0BD00000064004018
:102460004802002030380240000C02400068004062
:10247000000402407047000010B50446006833496C
:102480008AB0884205D107AB6A4600212046FFF793
:1024900064FD2F492068884255D107AB6A46002168
:1024A0002046FFF75AFD0098A0F2012007281AD213
:1024B00010F0FF01BDF81C0001EB410342BA2548B2
:1024C00000EB83008280BDF81E2052BAC280BDF8A6
:1024D000202052BA02819DF82220827203D11E4927
:1024E0000888401C08800098A0F5007111392AD195
:1024F000BDF81C0000EE100A1948F8EE400A9FEDE6
:10250000170A80EE801A80ED001ABDF81E1000EE4A
:10251000901AF8EE600A80EE801A80ED011ABDF87C
:10252000201000EE901AF8EE600A80EE801A80ED1E
:10253000021ABDF8221000EE901AF8EE600A80EE42
:10254000801A80ED031A0AB010BD0000006400403C
:1025500000680040D8780020620200200000C842D5
:1025600028760020704770477047000070B5044619
:1025700090F82000012804D0606A40F400206062D6
:1025800018E0022084F820002068016821F0010191
:10259000016000F0D1FA05460EE000BF00F0CCFA71
:1025A000401B0A2808D9606A40F4003060620520A8
:1025B00084F82000012070BD20684068C007EDD17C
:1025C000606270BD704770477047704770477047D2
:1025D00070472DE9F0410446876D00F0ADFA0646DC
:1025E00094F835000025022806D08020606584F824
:1025F00034500120BDE8F0812068016821F0160107
:1026000001602068416921F080014161206C08B9B6
:10261000A06C20B12068016821F0080101602068E9
:10262000016821F0010101600CE000F085FA801BD7
:10263000052807D920206065032084F8350084F838
:102640003450D7E720680068C007EED194F85C10DA
:102650003F208840B860012084F8350084F8345069
:102660000020C7E790F83510022903D0802141658A
:1026700001207047052180F835100068016821F0BD
:1026800001010160002070472DE9F84304464FF036
:102690000009CDF8009063484FF41651A56D00680D
:1026A000B0FBF1F72E6894F85C10082000FA01F1F5
:1026B00031420FD021680A6852070BD50A6822F010
:1026C00004020A6094F85C108840A860606D40F0D5
:1026D0000100606594F85C104FF0010808FA01F001
:1026E000304208D021684969090604D5A860606DA8
:1026F00040F00200606594F85C100420884030428D
:1027000008D021680968890704D5A860606D40F089
:102710000400606594F85C1010208840304218D0A6
:1027200021680968090714D5A86020680168490371
:1027300004D50068000308D5A16C07E00168C9054D
:1027400003D4016821F008010160216C09B1204621
:10275000884794F85C1020208840304231D02168AE
:102760000968C9062DD5A86094F8350005282068A9
:10277000016806D0490347D5006800031DD4616C89
:102780001CE021F0160101602068416921F0800100
:102790004161206C08B9A06C20B12068016821F06B
:1027A0000801016094F85C103F208840A86084F81C
:1027B000358084F83490216D1FE0E16B09B120462B
:1027C0008847606D00282BD0606DC00714D00520AD
:1027D00084F835002068016821F00101016000984B
:1027E000401C0090B84203D820680068C007F6D1AA
:1027F00084F8358084F83490E16C002910D001B061
:102800002046BDE8F04308470168C905D5D40168F2
:1028100021F01001016084F8358084F83490CCE711
:10282000BDE8F8835C0200202DE9F041044600F089
:1028300083F906465CB1022084F83500002584F84F
:1028400034502068016821F0010101600DE0012091
:10285000BDE8F08100F070F9801B052805D9202023
:102860006065032084F83500F2E720680068C0073F
:10287000F0D12268116820480140D4E901031843CF
:10288000D4E903363343184363691843A3691843F3
:10289000E3691843236A18430843616A042903D192
:1028A000D4E90B1319430843106020684069666A35
:1028B00020F0070130460E43012704280CD1A06AFE
:1028C0000643E06A40B12046FFF780F820B140207F
:1028D000606584F83570BAE7206846612046FFF7E6
:1028E00061F894F85C203F2191408160656584F82F
:1028F00035700020ACE700003F8010F070B5044652
:1029000000F01AF90546601C02D00448007804441F
:1029100000F012F9401BA042FAD370BDC0010020A4
:1029200070470000044910B50A68024202D00860EE
:10293000FFF7F6FF10BD0000143C01402DE9F84FF1
:10294000DFF8BCA10022012503264FF00F090AF190
:10295000040BAAF1040E00BF0B6805FA02F4234031
:10296000A34270D10F7907F00307012F01D0022F86
:1029700016D187684FEA420806FA08FC27EA0C07D6
:10298000D1F80CC00CFA08FC4CEA070CC0F808C0DF
:102990004768A7430C79C4F3001494403C43446057
:1029A0000C79E443A4070AD0C4684FEA420C06FA43
:1029B0000CF7BC438F6807FA0CF72743C7600C7904
:1029C00004F00304022C12D1D40800EB840CDCF8D0
:1029D00020405707FF0E09FA07F824EA0804D1F847
:1029E000108008FA07F848EA0408CCF82080046848
:1029F0004FEA420C06FA0CF7BC430F7907F00307C5
:102A000007FA0CF7274307604C6814F4403F70D076
:102A10003C4C276847F480472760246822F003076E
:102A200004F480440094384C07EB040CDCF80848AC
:102A300097074FEA177809FA08F7BC43334FB842B3
:102A400002D1002724E054E0314FB84201D10127E0
:102A50001EE0304FB84201D1022719E02E4FB84294
:102A600001D1032714E02D4FB84201D104270FE014
:102A70002B4FB84201D105270AE02A4FB84201D1B5
:102A8000062705E0284FB84201D1072700E00827B4
:102A900007FA08F72743CCF80878DAF800405746D9
:102AA000D1F804C09C435FEACC2C00D51C433C60A9
:102AB000DBF800405F46D1F804C09C435FEA8C2CF1
:102AC00000D51C433C60DEF800407746D1F804C0D6
:102AD0009C435FEA8C3C00D51C433C60084F083F98
:102AE0003C68D1F804C09C435FEACC3C00D51C4351
:102AF0003C60521C102AFFF42FAFBDE8F88F000095
:102B0000083C0140443802400030014000000240CF
:102B10000004024000080240000C02400010024085
:102B20000014024000180240001C02400AB18161FA
:102B300070470904FBE70000014880687047000007
:102B4000C001002070B5040025D094F83D00002598
:102B500020B984F83C50204600F0B8F8242084F8CE
:102B60003D002068016821F00101016020680168D2
:102B700041F4004101602068016821F400410160D6
:102B800000F072FA4D4A6168914201D84C4900E068
:102B90004C49884201D2012070BD4B492368B0FBEB
:102BA000F1F15E6826F03F060E435E606368934273
:102BB00006D94FF4967359434FF47A73B1FBF3F18E
:102BC0002368491C1E6A26F03F063143196261687A
:102BD000914210D84900401EB0FBF1F2521CC2F3E2
:102BE0000B02042A01D2042022E0B0FBF1F0401CC9
:102BF000C0F30B001CE0A268F2B301EBC10303EBCE
:102C00000116431EB3FBF6F35B1C43F480431B0524
:102C100049D092B301EBC10202EB0111401EB0FB9F
:102C2000F1F0401CC0F30B0040F4804040F4004041
:102C30002168CA694CF6FF739A431043C861D4E90E
:102C4000071001432068026822F0C00211430160AE
:102C5000D4E9030101432068826848F2FF339A43B4
:102C600011438160D4E9050108432168CA6822F054
:102C7000FF021043C86001E00EE016E02068016822
:102C800041F0010101602564202084F83D002563A6
:102C900084F83E50002070BD01EB4106431EB3FB9B
:102CA000F6F35B1CB3E70120C2E701EB4101401ED4
:102CB000B0FBF1F0401CC0F30B00B7E7A0860100A9
:102CC00080841E0000093D0040420F00F0B587B02F
:102CD000044614216846FEF76FF81D4920688842B3
:102CE00033D11C480024016841F0040101600168EF
:102CF00001F004010591016841F0010101600068E3
:102D0000122500F0010005904FF40070CDE9000598
:102D100002AA0326042782E8D00069460E48FFF77E
:102D20000DFEB801CDE9000502AA694682E8D0008F
:102D30000A48FFF703FE07481030016841F400011C
:102D40000160006800F40000059007B0F0BD0000CD
:102D5000005C0040303802400008024000000240A1
:102D6000024881680278114481607047C0010020E8
:102D70000B4810B5016841F400710160016841F42D
:102D800080610160016841F480710160032000F0FE
:102D90009FF80F2000F006F800F050F8002010BD5A
:102DA000003C024030B505461F4887B0002401684A
:102DB00041F002010160006806A900F002000090E5
:102DC00001A800F031F90498A8B100F04DF94000D5
:102DD0001649174AB0FBF1F11648491E026040F24D
:102DE000E732C0E90324C0E90114846100F0E4FD86
:102DF000040003D015E000F037F9E9E70D4800F0D2
:102E000079FE04000DD11D2000F034F8102D07D2FA
:102E1000002229461D2000F03BF80748056000E02D
:102E2000012407B0204630BD4038024040420F0028
:102E3000000400406C710020C40100200C4882B0E6
:102E4000016841F480410160006800F48040009016
:102E50000748001F016841F08051016000680022AE
:102E600000F0805000900F21901E02B000F010B8CA
:102E700044380240002809DB00F01F020121914084
:102E80004009800000F1E020C0F800117047000008
:102E9000F0B40E4B1B680C46C3F30223C3F10705C5
:102EA000042D00D90425191D072901D2002300E0B3
:102EB000DB1E012606FA05F1491E214099409E407D
:102EC000761E16403143F0BC04F05EBD0CED00E010
:102ED000064900F0070208684FF6FF03184040EA71
:102EE0000220034A10430860704700000CED00E028
:102EF0000000FA052DE9F0470E46050065D0DFF821
:102F00001481D8F80000F7B200F00700B04207D2F1
:102F100088F80070D8F8000000F00700B04254D1E3
:102F200028683D4C810712D5400703D5206840F43E
:102F3000E05020602878000703D5206840F4604006
:102F400020602068A96820F0F000084320602878FD
:102F5000C0072DD0304968680839012812D00228EE
:102F600013D0032811D00968890700292DDA2168B8
:102F700021F0030101432160FFF7DEFD814641F2AC
:102F8000883A0EE009688903EFE709688901ECE7F0
:102F9000FFF7D2FDA0EB0901514502D90320BDE89E
:102FA000F0872068696800F00C00B0EB810FEFD16A
:102FB000D8F80010404601F00701B14207D9077068
:102FC000006800F00700B04201D00120E7E7287850
:102FD000400705D52068E96820F4E05008432060E8
:102FE0002878000706D52068296920F4604040EA67
:102FF000C100206000F058F82168084AC1F30311AD
:10300000515CC8400649086006480068FFF7CAFEE0
:103010000020C4E7003C02400838024050A00008ED
:103020005C020020C40100200F2202600C4A1368D9
:1030300003F003034360136803F0F0038360136835
:1030400003F4E053C36012684FF4E05303EAD20282
:1030500002610448006800F0070008607047000043
:1030600008380240003C02400448054900680968ED
:10307000044AC1F38221515CC84070475C020020C1
:103080000838024060A00008044805490068096843
:10309000044AC1F34231515CC84070475C020020D1
:1030A0000838024060A00008154810B5006810F00C
:1030B0000C02144813D01449042A0FD0082A0ED148
:1030C0000F4C241F2268236802F03F025B0207D5E1
:1030D0002068C0F38810A0FB010106E0084610BD7F
:1030E0002168C1F38811A1FB00010023FDF71AFE3E
:1030F0002168C1F30141491C4900B0FBF1F010BD4A
:10310000083802400024F400001BB7002DE9F84FF6
:1031100004006ED02078DFF84C93C007A9F10405B5
:103120004AD009F104000168C1F38101012908D0E6
:103130000068C0F3810002280AD1D9F800004002DB
:1031400006D52868800337D560680028E1D033E0D1
:103150006068B0F5803F10D0B0F5A02F286810D07F
:1031600020F480302860286820F48020286060687F
:10317000A8B1FFF7E1FC06460DE0286840F4803076
:10318000F4E740F480202860F7E700BFFFF7D4FCA5
:10319000801B642873D828688003F7D50CE0FFF7FC
:1031A000CBFC064605E000BFFFF7C6FC801B642889
:1031B000F0D828688003F7D42078DFF8AC82800745
:1031C0004FF0000A3ED5A748001D016811F00C0F12
:1031D00008D00068C0F3810002280BD1D9F80000A4
:1031E000400207D42868800716D5E068012800D17E
:1031F00012E033E1E068B8B10120C8F80000FFF741
:103200009BFC064605E000BFFFF796FC801B0228EA
:10321000C0D828688007F7D52868216920F0F80011
:1032200040EAC10028600DE0C8F800A0FFF784FC68
:10323000064604E0FFF780FC801B02281FD82868A0
:103240008007F7D42078000722D5864F8748616928
:10325000703771B101210160FFF76EFC064604E092
:10326000FFF76AFC801B022809D838688007F7D569
:103270000EE0C0F800A0FFF75FFC064605E082E024
:10328000FFF75AFC801B02287DD838688007F7D4E6
:103290002078400768D5DFF8CCB100270BF13C0B54
:1032A000DBF80000C0000BD4DBF8001041F08051C7
:1032B000CBF80010DBF80000012700F080500090F0
:1032C0006B4E3068C00510D4306840F480703060B8
:1032D000FFF732FC009005E0FFF72EFC0099401A42
:1032E000022850D83068C005F6D55E4EA0686C360E
:1032F00001280FD00528306810D020F00100306080
:10330000306820F004003060A068B8B1FFF714FC0A
:1033100000900FE0306840F00100F4E740F0040056
:103320003060F7E7FFF708FC0099411A41F2883056
:10333000814266D830688007F4D50EE0FFF7FCFBC9
:10334000009007E0FFF7F8FB0099411A41F288303E
:10335000814256D830688007F4D42FB1DBF80010D2
:1033600021F08051CBF80010A069C8B33D49091D78
:103370000968C1F3810102294AD00228504607D0CA
:10338000C8F8600000E03CE0FFF7D6FB04463BE0F5
:103390004746C8F86000FFF7CFFB064605E000BFD0
:1033A000FFF7CAFB801B02282BD828688001F7D4BE
:1033B000D4E907010843A16A2E4A490802EB0141FA
:1033C000626A41EA8211084394F82C1040EA0161D4
:1033D000C9F8001001203866FFF7AEFB044606E08E
:1033E0003EE000BFFFF7A8FB001B022809D82868B1
:1033F0008001F7D534E000BFFFF79EFB001B0228D9
:1034000002D90320BDE8F88F28688001F4D427E0B2
:103410000128F7D0D9F80000E26900F48001914258
:103420001CD1226A00F03F01914217D147F6C071CA
:10343000626A0140B1EB821F10D1A26A4FF0FF33E4
:1034400000F4403103EB5202B1EB024F06D194F885
:103450002C1000F07060B0EB016F01D00120D1E7BB
:103460000020CFE70438024000004742800E474268
:10347000007000400000FFFF7047000038B5016891
:1034800004464A688868C043430606D5C30704D18A
:10349000D3435B0601D4216C05E0830708D4D343F2
:1034A0001B0605D4616C01B02046BDE830400847DA
:1034B000830603D5430601D5C30551D4D3439B06E8
:1034C0004ED443060AD494F85130032B49D0636D8F
:1034D00043F004036365CB688B680093830609D4CB
:1034E000636D43F0010363658B6800930B6823F001
:1034F00040030B60C00506D4606D40F008006065B5
:10350000206880680090606D002829D0206841689C
:1035100021F0E0014160012084F85100900701D4BE
:10352000D00722D02068416821F003014160114D8D
:10353000E06C40B10565E06CFFF794F818B1606D80
:1035400040F040006065A06C002809D00565A06CC3
:10355000FFF788F8002803D0606D40F040006065F8
:1035600038BDC8688868009038BD2046FFF784FFE2
:1035700038BD0000D56D000870B5040009D0606A40
:10358000002540B125616561A56294F8510040B104
:103590000CE0012070BD6068B0F5827FF4D0E56179
:1035A000F2E784F85050204600F044F8022084F8F6
:1035B00051002068016821F040010160A088218944
:1035C00000F4827001F404410843A18901F4006110
:1035D0000843217C01F002010843217D01F0010133
:1035E0000843218B01F400710843217F01F0380169
:1035F000084394F8201001F080010843218D01F464
:103600000051084321680860A069042101EA1040C4
:1036100094F8241001F010010843216848602068E4
:10362000C16921F40061C1616565012084F8510020
:10363000002070BD2DE9F04387B00646142168468E
:10364000FDF7BAFB38493068884269D13748002510
:10365000016841F480510160006800F480500590D9
:1036600032481438016841F002010160016801F03C
:1036700002010591016841F0010101600068022426
:1036800000F001000590182001274FF003084FF0CB
:1036900005098DE8910369462548FFF74FF9802019
:1036A0008DE8910369462348FFF748F9234C2248E7
:1036B0004FF0C0672060C4E901754FF48068C4E929
:1036C000035865617812A561C4E907502046656218
:1036D000FFF7AAF808B1FEF71DFBF464A663174CC8
:1036E000154860344830E4E802074020A4E821018E
:1036F000C00244F81459A561C4E907500F48656237
:103700006030FFF791F808B1FEF704FBB4640022C3
:1037100005212320A663FFF7BBFB2320FFF7AAFBAD
:1037200007B0BDE8F083000000300140443802409B
:10373000000402400000024010640240AC7000200F
:103740002DE9F84F044690F8500000270A9E1D46C8
:1037500092468B464FF0010901280ED0012084F8D3
:103760005000FFF7E9F9804694F85100616801289C
:103770000CD0B1F5827F07D102E00220BDE8F88FBE
:10378000A16809B9042801D00227C2E0BBF1000FEB
:1037900027D0BAF1000F24D01DB394F851000428AB
:1037A00002D0052084F8510000206065C4F838A0DC
:1037B000E587A587C4F830B0E586A58620646064F7
:1037C00020680168490603D4016841F040010160A6
:1037D000E068B0F5006F606805D0E8B3012D46D011
:1037E0007FE0012795E008B1012D39D1206B2168D8
:1037F0000088C860206B801C2063E08E401EE0863D
:103800002EE02068816889070FD5E18E69B1B9F192
:10381000010F0AD1216B0988C160206B801C2063D5
:10382000E08E401EE0864FF0000920688168C907DD
:103830000CD0E18F51B1C068A16B0880A06B801CD7
:10384000A063E08F401EE0874FF00109FFF774F995
:10385000A0EB0800B04200E009E001D3701C50D199
:10386000E08E0028CDD1E08F0028CAD13FE0206B48
:10387000216800780873206B401C2063E08E401E96
:10388000E0862EE02068816889070FD5E18E69B156
:10389000B9F1010F0AD1216B09780173206B401C2B
:1038A0002063E08E401EE0864FF0000920688168AA
:1038B000C9070CD0E18F51B1C068A16B0870A06B33
:1038C000401CA063E08F401EE0874FF00109FFF726
:1038D00033F9A0EB0800B04202D3701C01D010E015
:1038E0007EB1E08E0028CDD1E08F0028CAD14246BB
:1038F0003146204603F076FA28B101272020606582
:1039000007E0032705E0A06818B92068C16880684F
:103910000090012084F85100002084F850003846BF
:103920002CE770477047000070B590F83C20012AE2
:1039300032D0012480F83C40022280F83D20036808
:103940005A689D6822F070060A6832435A60134B29
:1039500002689A4214D0B2F1804F11D0104B9A42B3
:103960000ED0104B9A420BD00F4B9A4208D00F4BFF
:103970009A4205D00E4B9A4202D00E4B9A4204D185
:10398000496825F080031943916080F83D4000218B
:1039900080F83C10084670BD022070BD0000014058
:1039A0000004004000080040000C004000040140FA
:1039B000004001400018004010B5040003D094F806
:1039C0003D0010B107E0012010BD002084F83C004C
:1039D000204600F01FF8022084F83D00211D2068D9
:1039E00003F0DAFB012084F8460084F83E0084F8F6
:1039F0003F0084F8400084F8410084F8420084F8D5
:103A0000430084F8440084F8450084F83D00002019
:103A100010BD000008B5324A01683248914210D109
:103A2000016841F0010101600068002200F001001E
:103A3000009005211820FFF72BFA1820FFF71AFA3B
:103A400044E0B1F1804F19D0274A914221D1016859
:103A500041F0020101600068002200F002000090C5
:103A600005212B20FFF714FA2B20FFF703FA002281
:103A700005212C20FFF70CFA2C202DE01948001FFF
:103A8000016841F001010160006800F00100009050
:103A900008BD164A91420ED1016841F4803101609F
:103AA0000068002200F48030009005211820FFF704
:103AB000EFF9182010E00E4A9142E9D1016841F473
:103AC00000310160006800F4003000900022052100
:103AD0001920FFF7DDF91920BDE80840FFF7CAB942
:103AE0000000014044380240000401400040014011
:103AF0000044014090F83D10012901D00120704799
:103B0000022180F83D100168CA6842F00102CA60D3
:103B100000681149884214D0B0F1804F11D00F498C
:103B200088420ED00E4988420BD00E49884208D0F8
:103B30000D49884205D00D49884202D00C4988427F
:103B400004D1816801F00701062903D0016841F022
:103B500001010160002070470000014000040040A6
:103B600000080040000C00400004014000400140FB
:103B70000018004070B5044690F83C00002501286C
:103B800017D0012684F83C60022084F83D002068AC
:103B9000826822F0770222F47F428260086850280F
:103BA00038D00DDC20284FD005DC90B3102811D17F
:103BB0004AE0022070BD302846D040280AD13BE0C0
:103BC00060282FD070280DD0B0F5805F03D0B0F5FD
:103BD000005F12D0012584F83D60002084F83C008D
:103BE000284670BDCB68D1E90121206803F045FB70
:103BF0002068816841F0770109E0CB68D1E90121B3
:103C0000206803F03AFB2068816841F480418160BC
:103C1000E1E719E0CA684968206803F018FC502100
:103C2000206806E0CA684968206803F021FC60212A
:103C3000206803F02CFBCEE7CA684968206803F0CF
:103C400006FC40212068F4E7226801461046F0E7B0
:103C5000704770B50446006801694FF00005C9431C
:103C6000890715D4C168C943890711D4E91E0161C8
:103C700001202077206880698007204602D0FFF766
:103C8000E7FF04E000F0C2F8204600F054F9257781
:103C900020680169C943490717D4C168C943490766
:103CA00013D46FF00401016102202077206880693D
:103CB00010F4407F204602D0FFF7CAFF04E000F076
:103CC000A5F8204600F037F9257720680169C94337
:103CD000090716D4C168C943090712D46FF0080157
:103CE0000161042020772068C0698007204602D047
:103CF000FFF7AEFF04E000F089F8204600F01BF962
:103D0000257720680169C943C90617D4C168C9432A
:103D1000C90613D46FF010010161082020772068D4
:103D2000C06910F4407F204602D0FFF791FF04E005
:103D300000F06CF8204600F0FEF825772068016955
:103D4000C943C90708D1C168C943C90704D1891E3D
:103D50000161204600F054F920680169C943090651
:103D600009D4C168C943090605D46FF08001016117
:103D70002046FFF7D6FD20680169C943490609D4EA
:103D8000C168C943490605D46FF04001016120466E
:103D900000F040F920680169C94389060BD4C16865
:103DA000C943890607D46FF0200101612046BDE8B0
:103DB0007040FFF7B7BD70BD10B586B00446142142
:103DC0006846FCF7F9FF0E492068884215D10D4876
:103DD000016841F0200101600068012100F020002D
:103DE0000590402000900220CDE9010103900320BE
:103DF000049069460448FEF7A1FD06B010BD00001E
:103E0000004401403038024000140240704770B551
:103E1000044690F83C0000260D4601280FD00120F2
:103E200084F83C006AB1042A1DD0082A2FD00C2A3D
:103E30003FD00126002084F83C00304670BD0220AF
:103E400070BD206803F02CFA2068816941F00801F8
:103E500081612068816921F00401816120688169A4
:103E60002A69114311E0206803F04AFA2068816949
:103E700041F4006181612068816921F48061816180
:103E8000206881692A6941EA02218161D2E72068BC
:103E900003F06CFA2068C16941F00801C161206833
:103EA000C16921F00401C1612068C1692A69114317
:103EB00011E0206803F08EFA2068C16941F40061C6
:103EC000C1612068C16921F48061C1612068C16954
:103ED0002A6941EA0221C161ACE710B5040003D0B0
:103EE00094F83D0010B107E0012010BD002084F8D7
:103EF0003C00204600F01EF8022084F83D00211D01
:103F0000206803F049F9012084F8460084F83E0057
:103F100084F83F0084F8400084F8410084F84200AF
:103F200084F8430084F8440084F8450084F83D0098
:103F3000002010BD7047704710B50446022249B1F9
:103F400004290ED0082913D094F84100012816D076
:103F5000012010BD94F83E000128F9D184F83E20DC
:103F60000FE094F83F000128F2D184F83F2008E0E8
:103F700094F840000128EBD184F8402001E084F857
:103F800041200122206803F06BF916492068164A87
:103F9000884201D0904203D1436C43F40043436410
:103FA0002068884213D0B0F1804F10D00F4988426A
:103FB0000DD00F4988420AD00E49884207D090425E
:103FC00005D00D49884202D00C49884204D181684D
:103FD00001F00701062903D0016841F001010160E9
:103FE000002010BD0000014000040140000400401A
:103FF00000080040000C0040004001400018004054
:1040000000680349884201D1FEF7AABE704700004C
:10401000000400407047704770470000F8B5016821
:1040200004460868CA684B6910F00F0F4FF000058E
:104030005AD003F0010602F49077374365D0C107E8
:1040400005D0D10503D5216C41F001012164410760
:1040500005D5D90703D0216C41F002012164810705
:1040600005D5D90703D0216C41F004012164010773
:1040700007D502F02001314303D0216C41F0080143
:104080002164216C00293BD0800604D5900602D51E
:10409000204603F02EFA20684069216CC0F380109E
:1040A00001F00801014320462BD003F0FBF9206802
:1040B0004069400621D52068143050E8001F21F0E7
:1040C000400140E80012002AF5D1A06BA8B16C496C
:1040D0000165A06BFEF7C6FA002811D0A06B016D38
:1040E00001B0BDE8F040084783060ED593060CD515
:1040F0002046BDE8F84003F0FCB92046FFF78CFFEE
:10410000F8BDFFF789FF2564F8BD266B2023012E3B
:1041100079D1C60677D5D60675D508684868009067
:104120004869400640D5A16B086840680004000C4F
:10413000EAD0A28D8242E7D9E085C869B0F5807FD8
:104140002DD020680C3050E8001F21F4807140E829
:104150000012002AF5D12068143050E8001F21F029
:10416000010140E80012002AF5D12068143050E81F
:10417000001F21F0400140E80012002AF5D184F828
:104180003E30256320680C3050E8001F21F01001FC
:1041900040E80012002AF5D1A06BFEF71AFAA08DB4
:1041A000E18D401A81B229E0A08DE18D401A81B2E3
:1041B000E08D0028A8D00029A6D020680C3050E857
:1041C000002F22F4907240E80026002EF5D12068DE
:1041D000143050E8002F22F0010240E80026002EA3
:1041E000F5D184F83E30256320680C3050E8002F6C
:1041F00022F0100240E80023002BF5D12046FFF703
:104200000AFFF8BDFFE705062BD5150629D594F85A
:104210003D002128F5D1A068B0F5805F01D120696B
:10422000B0B1206A411C2162216800784860E08CAE
:10423000401E0004000CE084E3D12068C16821F036
:104240008001C1602068C16841F04001C160D8E7C9
:10425000206A0088C0F308004860206A801C206241
:10426000E5E74006CDD55006CBD5CA68204622F0FA
:104270004002CA6084F83D3000F0A3F9C1E70000B5
:104280009574000870B5040004D094F83D00002532
:1042900010B106E0012070BD84F83C50204600F0CB
:1042A00023F8242084F83D002068C16821F40051DF
:1042B000C160204603F07EF92068016921F4904135
:1042C00001612068416921F02A0141612068C168CB
:1042D00041F40051C1602564202084F83D0084F839
:1042E0003E00002070BD00002DE9F04F87B004466D
:1042F00014216846FCF760FDA648DFF89482143864
:104300000322D4F800C0A34B022117040025061590
:104310004FF0070E4FF04009C4456FD1D3F800C0ED
:104320004CF0100CC3F800C01B6803F01003059399
:10433000036843F002030360036803F0020305937C
:10434000036843F00103036000688A4600F001003F
:1043500005908020CDE9000ACDE902529346F0464F
:104360006946CDF810E08C48FEF7E8FA7010CDE908
:10437000000ACDE9025B6946CDF810808748FEF758
:10438000DDFADFF820B2864958464FF0006802C0D7
:104390000915E0E802858E10E0E80351BA4640F8BE
:1043A000045C80E860045846CBF82450FEF73CFAE1
:1043B00008B1FDF7AFFC7B4F7948C4F838B06037DF
:1043C0007830CBF8384087E801030015C7E903507F
:1043D00007F118007D6180E8600438467D62FEF7D1
:1043E00023FA08B1FDF796FC67630022052125201A
:1043F000BC63FEF74DFD252062E0FFE7DFF8A881F2
:10440000C44562D1634BAA461B1FD3F800C04CF4CD
:10441000802CC3F800C01B6803F480230593036855
:1044200043F004030360006800F0040005904FF4BB
:1044300040608DE82300CDE9032E69465B48FEF716
:104440007DFADFF860815A4908F1C0084046C8F893
:1044500000104FF0006BC0E901B5C0E90356C8F881
:1044600020708915C8F81450C8E90651C8F82450BE
:10447000FEF7DAF908B1FDF74DFC4E4DC4F838806F
:104480004B48C8F838403030C5F80890C5E9000BF3
:10449000C5E903A6C5F814A0C5F818A0C5E907A783
:1044A0002846C5F824A0FEF7BFF908B1FDF732FC95
:1044B0006563002205212720AC63FEF7E9FC272075
:1044C000FEF7D8FC07B0BDE8F08FDFF8EC80C445FC
:1044D000F8D1D3F800C04CF0200CC3F800C01B6822
:1044E00003F020030593036843F040030360006872
:1044F00000F0400005904FF48440CDE90001012018
:10450000CDE902020820049069462C48FEF716FA0D
:10451000DFF8A080224908F16008183940464FF0C2
:10452000206AC8F80010C0E901A5C0E90356C8F820
:104530001450C8F81850C8E90757C8F82450FEF7B7
:1045400073F908B1FDF7E6FB1A4FC4F83880C0379D
:10455000C8F83840C7F80890C7E9035610487D618D
:104560006030BD61C7E9000A4FF48030C7E90750E9
:1045700038467D62FEF758F908B1FDF7CBFB67635B
:10458000002205214720BC63FEF782FC472097E705
:104590000010014044380240000402400000024084
:1045A00040640240E87300200048004000080240D8
:1045B00028600240087500200014014000180240E5
:1045C0007047704770B5044600203C4D2074A27BB4
:1045D000288861684243D4F8F400FCF7D4FBA17B3F
:1045E000288841436068FCF7E7FBA07B10FB00F1E3
:1045F00028884143D4F81801FCF7DEFB207BA17B1F
:1046000010FB01F128884143D4F80C01FCF7D4FBDE
:1046100000202BE0D4F8F41001EB800292ED000AA8
:10462000B5EEC00AF1EE10FA1ED0227C01EB820139
:1046300081ED000A227C616A8854A169227B01EB2A
:104640008001237C91ED000A6169095C12FB031172
:104650006FF0030202EB8101D4F80C21114481EDCB
:10466000000A217C491C2174401CC0B2A17B8142FC
:10467000D0D8002010E0636AE2691B5C02EB830281
:1046800092ED000A10FB0101D4F81821401C02EB46
:104690008101C0B281ED000A217C8142EBD8C8B211
:1046A00024F8780F14F86C0C6080208161812183DC
:1046B00061832084618424F8301C70BDA80100202F
:1046C000FEE70000F0B58D4C0F462DED068B05463C
:1046D00087B01646D0ED040A94ED050A884830EEFE
:1046E000C00AB0EEC00A10EE101A814219DC95ED36
:1046F000050A94ED061A30EE410AB0EEC00A10EE3B
:10470000101A81420DDC95ED060A94ED071A30EE81
:10471000410AB0EEC00A10EE101A814201DC28787E
:10472000F0B39FED789A80EE890AFBF7A9FDF0EED1
:10473000400AF0EE609AD5ED050A80EE890AFBF793
:104740009FFDD5ED060AF0EE401A80EE890AB0EE24
:1047500061AAFBF795FDD5ED040AF0EE40AA80EEC4
:10476000890AFBF7C9FDF0EE400AB0EE608AD5ED8C
:10477000050A80EE890AFBF7BFFDD5ED060AF0EECB
:10478000408A80EE890AFBF7B7FD29EEAA2A68EE77
:10479000280AB0EE401AB0EE420A00EE810A00E0AC
:1047A0002BE084ED080A2AEE080A6AEE880A002047
:1047B00084ED090A29EE810A00EEE80A84ED0A0A6E
:1047C00029EEA80A20EE010A0AEEC80A84ED0B0AB7
:1047D00029EE8A0A84ED0C0A28EE410A02EE680AE4
:1047E00084ED0D0A2AEE410A84ED0E0A2AEE2A0A09
:1047F000C4ED0F8A84ED100A287000204FEA0D01E5
:1048000007EB800292ED000A05EB8002D2ED010A6F
:1048100001EB8002401C20EE200AC0B2032882ED8A
:10482000000AEDD39DED000AD4ED085A9DED011A62
:1048300094ED094A20EE252ADDED020AD4ED0A1A8C
:10484000002004EE012A03A901EEA02A87ED002A28
:1048500094ED0B3AD4ED0C2A94ED0D2A60EE033A58
:1048600042EE813A42EE203AC7ED013AD4ED0E3ADB
:10487000D4ED0F4A94ED105A20EE230A04EE810A7B
:1048800005EE200A87ED020A06EB800292ED000A8F
:1048900001EB8002401CC0B282ED000A0328F3D372
:1048A0009DED031ADDED040A9DED050A61EE255A22
:1048B00044EE205A41EE805A61EE031A21EE231A8B
:1048C00042EEA01A04EEA01AC6ED005A42EE001AFB
:1048D00005EE001AC6ED011A86ED021A95ED040ADE
:1048E00084ED050A95ED050A84ED060A95ED060AA4
:1048F00084ED070A07B0BDEC068BF0BD0000002078
:104900006F12833AE12E654210B504462DED048BFB
:10491000D0F8EC00D0ED009A90ED019AD0ED028A2B
:1049200029EEA90A90ED038A09EE090A08EEA80A01
:1049300008EE080A03F060FD5FF00000D4F8EC1008
:1049400001EB8001401CD1ED000AC0B2042860EEEA
:10495000800AC1ED000AF1D33E48D4F8001190ED71
:104960006F0A60EE090AB6EE000A60EE800AC1ED39
:10497000040AD0ED6F0AD4F8001160EEA80A60EEC8
:10498000800AC1ED050AD0ED6F0AD4F8001120EEBF
:10499000A91AFEEE000A21EE201A81ED0A1A90ED06
:1049A0006F1AD4F8001121EE081A21EE001A81EDD9
:1049B0000B1A90ED6F1AD4F8001121EE081A21EEAF
:1049C000201A81ED101A90ED6F1AD4F8001121EE23
:1049D000291A21EE201A81ED111A90ED6F1AD4F8E0
:1049E000001121EE281A21EE000A81ED160A90ED41
:1049F0006F0AD4F8001120EE090A20EE200A81ED9A
:104A0000170AD4F8F810D0ED740A91ED1C0A80EE64
:104A1000201A81ED1C1AD4F8F810D0ED740A0E4853
:104A200091ED230A80EE201A9FED0C0A81ED231AE6
:104A3000D4F8F8100A6F824201DD81ED1C0AD4F827
:104A4000F810D1F88C20824201DD81ED230ABDEC03
:104A5000048B10BD1804002000401C4600401C467A
:104A600070B52C4C01252DED028B04F5D870257006
:104A7000B7EE008A80EC030A00209FED270A84ED40
:104A8000730A84F83801C4E95000C4E9520011EEF9
:104A9000900AB0F17E5F01DDF0EE481AC4ED741AA1
:104AA00084ED642A032300220621201D00F0E0FE8D
:104AB0001A4B01221146A3F10800FBF7EBFC54F856
:104AC000EC0F9FED170A902280ED008A54F86409DC
:104AD000184980ED010A606E80ED020A606E80ED7B
:104AE000030A1048A0641048E0641048206510488C
:104AF000606504F85A5C04F8595CE06FFCF743F910
:104B0000606F9022BDEC028B0B49BDE87040FCF752
:104B10003AB900001804002077CC2B32E0050020C1
:104B2000000000003D4B000809490008714B0008D7
:104B300049500008649F0008CC00002010B50446CE
:104B4000902254F8F81F0848FCF71DF9482207483E
:104B5000616AFCF718F9054861694822BDE8104010
:104B60004830FCF710B90000CC000020F805002008
:104B700070B50446B0EE000A54F8EC0F2B4DD0EDA2
:104B8000000A60EE800AC5ED090AD0ED010A60EE68
:104B9000800AC5ED0A0AD0ED020A60EE800AC5ED72
:104BA0000B0AD0ED030A20EE800A85ED0C0A14F8FA
:104BB000DE0C14F8E01C10FB01F11D480088414395
:104BC000206AFCF7F9F8D5ED0B1A206AB1EE612ADC
:104BD00080ED002A206AD5ED0C0AC0ED010A95EDA2
:104BE000090A206AB1EE401A80ED021A206A95ED9A
:104BF0000A1A80ED031A206A80ED061A206A80EDF9
:104C0000070A206AC0ED080A206AC0ED091A206A66
:104C100080ED0C0A206AB1EE410A80ED0D0A206A8F
:104C200080ED0E2A206AC0ED0F0A70BD88000020BA
:104C3000A801002070B5F74C2DED088BB0EE438A2B
:104C4000F0EE629AB0EE42AAF0EE61AA2078B0EEE1
:104C5000419AB0EE60BAF0EE40BADFEDEF8A58B993
:104C6000B0EE682AF7EE001A9FEDEC1ADFEDEC0AC1
:104C7000B2EE040AFFF7F4FE84ED6F8A94ED580A51
:104C8000E84D90227BEEC00AE749C4ED5B0A94ED43
:104C9000590A3BEE401A84ED5C1A94ED5A0A79EEFB
:104CA000401AB6EE000A60EE800AC4ED5D1A60EEAE
:104CB000880AC5ED000A61EE000A21EE800A60EE66
:104CC000880A20EE080AC5ED010A85ED020AD4F82B
:104CD000040104F58274FCF756F895ED000A20688B
:104CE000B1EE402A80ED012A95ED011A2068F1EE1F
:104CF000412AC0ED022AD5ED021A2068F1EE610AC0
:104D0000C0ED030A206880ED060A2068C0ED081A8D
:104D10002068C0ED092A206880ED0C1A2068C0EDDB
:104D20000D0A206880ED0F0A2068C0ED121A206875
:104D300080ED131A54F8440B80ED142A74E85201E4
:104D4000084305D1C4ED5EAA84ED5FAAC4ED609A64
:104D500094ED5E0AD4ED640A94ED6F1A20EE202AD9
:104D600031EE200AC2EE001A21EE2A2AC2EE002AF3
:104D700031EEA22A84ED5E2AD4ED5F1A61EEA02AFC
:104D8000C2EE801A61EE0A2A21EE291A82EE803ADA
:104D900071EE831AC4ED5F1AD4ED602A62EEA02A88
:104DA000C2EE800AC1EE002A22EE020A01EEA10A3A
:104DB00070EEA20AC4ED600A00EEA00A03F01CFB2C
:104DC00085ED030A5FF0000004EB8001D1ED5E0A7F
:104DD000A16801EB800160EE800A401CC0B2C1ED09
:104DE000000A0328F0D394ED5B0AD4ED5C0A20EEB0
:104DF000000A00EEA00AD4ED5D0A00EEA00A03F05E
:104E0000FBFAB7EE008A8949C8EE000AC4ED650ACC
:104E100095ED031A10EE900A88EE010A884284ED9F
:104E2000660A0BDA10EE100A8149884206DD10EEA0
:104E3000100A8049884201DA012000E0002084F84D
:104E4000390194ED6C0AD4ED6F0AD4F8180120EE04
:104E5000200A80ED000A94ED6C0AD4ED6F0AD4F8B4
:104E6000180120EE200A80ED070A94ED6C0AD4EDBB
:104E70006F0AD4F8180120EE200A80ED0E0A94ED96
:104E80006C0AD4ED6F0AD4F8180120EE200A80EDE8
:104E9000150A94ED6D0AD4ED6F0AD4F8180120EECE
:104EA000200A80ED1C0A94ED6D0AD4ED6F0AD4F847
:104EB000180120EE200A80ED230AD4F81C0194ED9D
:104EC0006E0A80ED000AD4F81C0194ED6E0A80EDA4
:104ED000040AD4F81C0194ED6E0A80ED080A201D26
:104EE00000F0B0FF606890ED001A84ED541A90ED68
:104EF000010A61EE012A84ED550AD0ED021AC4EDD3
:104F0000561A90ED032A40EE002A84ED572AD0ED80
:104F1000040A21EE021AC4ED580AD0ED050AC4EDC8
:104F2000590A00EE211AC4ED5A8AF0EE008AF0EE1A
:104F3000480A52EEA80A21EE280A02F057FE9FED19
:104F40003E9AF0EE480A20EE090A84ED6A0A94EDD2
:104F5000541A94ED570A61EE011A40EE001A51EE10
:104F6000A80AD4ED551A21EE211AD4ED561A01EEF5
:104F7000801A21EE280A02F039FE20EE090A84ED9B
:104F8000690A94ED550AD4ED570A94ED561A20EEAD
:104F9000200AD4ED540A00EEC10AF8EE000A20EE11
:104FA000200A02F08DFD20EE090A244984ED680AEA
:104FB00094ED6A0AD4ED760A70EE600A10EE900A5B
:104FC000884203DDB4F8D401401E07E010EE900AD9
:104FD0001B49884204D9B4F8D401401CA4F8D40178
:104FE000B4F9D401DFED171A00EE900AB8EEE01A1A
:104FF000F0EE400A41EE210AC4ED6B0A84ED760A18
:10500000F4E95201401C41F10001C4E90001BDEC8A
:10501000088B70BD18040020000000008096184B1B
:105020006F12833A88000020649F00089A99993E85
:10503000CDCC1441CDCC2441E12E65420000344357
:10504000000034C30000B4432DE9F84F00F18001A3
:105050000446783005460091FBF7DAFD84F8C80075
:10506000B4F87800A4F8A800B4F85A00A4F8AA008C
:1050700004F1A80204F1580191468B462846FBF73B
:10508000A5FC84F8C800B4F8A800A4F8B000B4F8EF
:105090008200A4F8B20004F1B0029046484600999C
:1050A000FBF794FC84F8C800B4F89000A4F8A000C2
:1050B000B4F89200A4F8A20004F1A002154604F18D
:1050C00090014046FBF762F984F8C8004146284643
:1050D000B034FBF7E3F92076E16BBF480126D1ED50
:1050E000001AB0EE002AC0ED0D1AD1ED010A00271A
:1050F000C0ED0E0A91ED020AB84D80ED0F0A91ED58
:10510000031A80ED101A60EE812A34F8380C2081E1
:10511000668141EEC02AE06F62EE822AC0ED002A6D
:1051200061EEA02A61EEA11AE06F40EE012A40EE86
:10513000E01A22EE822A40EE401A80ED012AE06F4A
:10514000B4F1B00441EE011AC0ED021AD4F82C01FA
:1051500000EB870090ED000AB0EEC00A02F024FCDC
:1051600005EB87007F1CFFB280ED610A032FEDD3B2
:10517000B4F84800A4F8C00004F1C00204F1B8017A
:10518000A4F8C26017468A4604F14800FBF7BCFC4D
:1051900084F8C800B4F8C000A4F8A80024F8AA6FE6
:1051A0004A4639464046FBF711FCA077E681E08A83
:1051B000208251463846FBF72BFDA077884A4946A6
:1051C0005046FBF703FCA07795ED730AB6EE001A84
:1051D000D5ED720A20EE011AAA3CF4EEC10AF1EEF6
:1051E00010FA01D285F83861F4EEC00A0020F1EE21
:1051F00010FA35DD95F8381189B395F8391139B1C0
:10520000D5E95021521C41F10001C5E9502102E0CD
:105210000021C5E95011D5E950234FF0320C00218F
:10522000BCEB0202994102D285F8380136E06D4D9F
:1052300014F80C2F28884243D4E937017434FBF763
:10524000A2FD14F8740C10FB00F228884243D4E944
:105250001E01FBF798FD04F8546CBDE8F88FFFE7DA
:105260009FED611A20EE011AF4EEC10AF1EE10FA78
:105270000DDD95F8381151B170EE600A9FED5B1AA3
:1052800020EE010A80EE801A85ED671A03E0B7EE82
:10529000000A85ED670A0021C5E9501184F82C0049
:1052A000B4F85800A4F8A800B4F88200A4F8AA0042
:1052B0004A4658466C340099FBF788FB04F85C0FAB
:1052C000A4F13002934641464846C83CFBF77EFBBA
:1052D00084F8C80000200DE0D4F81C11D5ED670A51
:1052E00001EB8001401C91ED000AC0B220EE200AC3
:1052F00081ED000AB4F89810B4F89A205143814225
:10530000EADC04209FED3A0A002105EB800C00EB5B
:10531000400300BF9CED5D1AD4F81C2103EB01088B
:10532000C1EE000A02EB8802491C92ED001AC9B2D4
:10533000032960EE810AC2ED000AEBD3401CC0B223
:105340000628E1D334F8980F524620846684394603
:105350005846FBF73BFB84F8300095F83801983C41
:1053600050B39FED240ADFED240A0420D4F8BC10CA
:1053700095ED6F1A01EB800121EE001AD1ED001AB4
:10538000F4EEC11AF1EE10FA01DD81ED001AD4F845
:10539000BC1095ED6F1A01EB800121EE201AD1EDC2
:1053A000001AF4EEC11AF1EE10FA01D281ED001AE2
:1053B000401CC0B20628D9D3D4F8BC009FED0F0A18
:1053C00004F1300280ED030A514604F13800FAF787
:1053D000DDFF84F8C80040E78800002018040020A2
:1053E000D8050020A8010020CDCCCC3D6666663FE4
:1053F000DA0FC93F0AD7233C0AD723BC00000000BC
:10540000114810B590ED070A1048D0ED030A104876
:1054100001F07CFA0E4890ED0D0A02F0DBFF00EE81
:10542000100A9FED0C1ADFED0C0AB8EEC00A02F06C
:10543000C1FFBCEEC00ABDE8104010EE100A00210A
:1054400082B2064801F0EEBF940600200000002062
:10545000D00200200000804F00000000D472002025
:1054600010B52348B7EE000A2DED028B012180ED27
:10547000010A80ED020A9FED1F8A80ED030A80ED8C
:10548000048A80ED058A80ED068A0170B0EE482A14
:10549000F7EE001A9FED181ADFED180AB2EE040AB3
:1054A000FFF7DEFA00221146F0EE484AB0EE484A15
:1054B000F0EE483AB0EE483AF0EE482AB3EE042A4D
:1054C000DFED0F1AB0EE481ADFED0E0A9FED0E0A5F
:1054D0000E4801F041FC00210D48FEF72DFD044867
:1054E0009FED0C0A803880ED100ABDEC028B10BDD8
:1054F000FC030020000000008096184B6F12833AD6
:1055000000007A44000096430000FA44D0020020D4
:10551000D472002096430B3C70B563492DED028B8D
:1055200088B007C904AB83E807006048FCF7BAFA03
:105530005E4D5F4885ED010AD5ED020A30EE800A26
:1055400085ED020AFBF7C0FC59485A4C90ED000A61
:1055500004F11C0284ED070A90ED010AA2F10C018E
:1055600084ED080A90ED020A84ED090A90ED030A21
:1055700084ED040A90ED040A84ED050A90ED050A15
:1055800001F1700084ED060AFFF79CF8D4ED090ADA
:1055900094ED070A02F02AFB9FED478A20EE080AE5
:1055A000DFED460A80EE201A84ED1A1AD4ED090ABE
:1055B00094ED080A02F01AFB20EE080ADFED400A1B
:1055C00004F1100080EE201A84ED1B1A95ED013ACB
:1055D00090EC060AFFF72EFB3A4E20464ECE80E8AE
:1055E0004E00024600F144012F482438FBF7BBFD72
:1055F0002D48224602F150011838FBF7B4FD2A4825
:10560000224602F15C010C38FBF7ADFD22466946EB
:1056100004A8FCF70AFB95ED010A00204FEA0D02F1
:1056200004EB800102EB8003D1ED070A93ED001A31
:10563000401CC0B270EEC10A032820EE802AD4EDCF
:10564000100A30EE801AC2EE011A91ED0A2A62EEBB
:10565000200A80EE812A71EE820AC1ED0A0ADFD3A8
:10566000144A02F13401A1F10C00FBF77CFD16484D
:1056700090ED6A0A84ED1E0A90ED690A84ED1D0A18
:1056800090ED680A84ED1C0A90ED6B0A84ED1F0A08
:10569000287CC00701D1FFF7B3FE2869401C2861B0
:1056A00008B0BDEC028B70BD589F000800000020C0
:1056B000940600207C03002000003443DB0F49C027
:1056C000DB0F494068050020180400202DE9F04751
:1056D0000E4607460025DFF89491BFE0785DA528C7
:1056E00072D178190446052102F028F900286BD000
:1056F0006078A17840EA012805EB08000930B04243
:1057000045D8204608F1090102F0FAF800285BD0DC
:105710006079A17940EA012040F20221A0F2022240
:10572000884260D017DCB0F5817F3FD009DC0128CA
:105730001AD003281FD005282AD0B0EB610022D14F
:105740002DE0B0F5827F38D0A0F5807005383CD0D0
:10575000FC2818D140E0092A15D2DFE802F0144BEA
:10576000525960676E7577000B20804602463F48AD
:10577000E11D8F3805E02020804602463B48E11DB0
:105780008338FBF700FB05EB08000930C5B265E084
:105790000D20804602463548E11D6338F1E70420BC
:1057A000804602463148E11D5638EAE7042080462B
:1057B00002462E48E11D5238E3E7022080460246A9
:1057C0002A48E11D4E38DCE746E0012080460246CB
:1057D0002648E11D4C38D4E71B208046024623486A
:1057E000E11D4B38CDE71020804602461F48E11DE1
:1057F0003038C6E71020804602461C48E11D20389C
:10580000BFE70120804602461848E11D1038B8E77E
:105810000120804602461548E11D0F38B1E70120FE
:10582000804602461148E11D0E38AAE7072080464F
:1058300002460E48E11D0D38A3E7062080460246C9
:105840000A48E11D801F9CE7042000E006208046F6
:105850000246E11D484694E76D1CEDB2B542FFF4E7
:105860003DAFBDE8F04702F02BB800008C78002077
:105870002DE9F047DFF8DC830D460421A8F800107D
:105880000821A8F802100573427383734FF00009D2
:105890001E46044680F810901746304602F010FE6F
:1058A00031466061FBF788FAB8F80000704302F0F7
:1058B00007FEA061B8F800107143FBF77DFAB8F855
:1058C0000000704302F0FCFDE061B8F80010714385
:1058D000FBF772FAB8F80000684302F0F1FD2062AD
:1058E000B8F800106943FBF767FA304602F0E8FDAC
:1058F00031466062FBF760FAB8F80000684302F0D6
:10590000DFFD2060B8F800106943FBF755FAB8F8DE
:105910000000704302F0D4FD6060B8F800107143DD
:10592000FBF74AFAB8F80000784302F0C9FDA0601E
:10593000B8F800107943FBF73FFAB8F80000684365
:1059400002F0BEFDC4F8E800B8F800106943FBF7A8
:1059500033FA217B012204F13000D4F8E830FAF761
:1059600099FDB8F80000684302F0AAFDC4F8EC0005
:10597000B8F800106943FBF71FFA217B012204F1FC
:105980003800D4F8EC30FAF785FD9FB1B8F8000084
:10599000784302F095FDC4F8F000B8F800107943A0
:1059A000FBF70AFA617B012204F14000D4F8F030E1
:1059B000FAF770FDB8F80000704302F081FDC4F8FA
:1059C000F400B8F800107143FBF7F6F9A17B01224F
:1059D00004F14800D4F8F430FAF75CFDB8F80000A0
:1059E0006843684302F06CFDC4F8F800B8F8001092
:1059F00069436943FBF7E0F9217B04F150000A4653
:105A0000D4F8F830FAF746FDB8F800006843684368
:105A100002F056FDC4F8FC00B8F800106943694371
:105A2000FBF7CAF9217B04F158000A46D4F8FC3090
:105A3000FAF730FDB8F800006843684302F040FD13
:105A4000C4F80001B8F8000088346843684302F0E5
:105A500037FDE067B8F80010A06F69436943FBF7B2
:105A6000ABF9B8F80010E06F69436943FBF7A4F99C
:105A700054F8783FA4F1A00014F8F41CA4F5807445
:105A80000A46FAF707FD217B04F168000A46D4F8BC
:105A90000431FAF7FFFCAFB1B8F80000684378436F
:105AA00002F00EFDC4F80801B8F80010694379430C
:105AB000FBF782F9627B217B04F17000D4F8083196
:105AC000FAF7E8FCB8F8000047467043684302F074
:105AD000F7FCC4F80C01388894346843704302F032
